S0170000687770757A7A6C655F70757A7A6C652E737265637B
S11300000C943E000C945B000C945B000C945B001D
S11300100C945B000C945B000C94FC010C94780130
S11300200C945B000C945B000C945B000C945B00E0
S11300300C945B000C945B000C945B000C945B00D0
S11300400C945B000C945B000C945B000C945B00C0
S11300500C945B000C945B000C945B000C945B00B0
S11300600C945B000C945B000C945B000C945B00A0
S11300700C945B000C945B000C945B0011241FBE79
S1130080CFEFCDBFDFE3DEBF18E3A0E0B8E3E5E7E1
S1130090F4E002C005900D92A230B107D9F728E32D
S11300A0A2E0B8E301C01D92A430B207E1F70E94B8
S11300B07E000C9403020C9400009B012C5F3F4FC4
S11300C0982F9370FB019193BF0186958695E21753
S11300D0F307B1F70895CF93DF93EC018881882368
S11300E029F085E00E94CF01188205C086E00E94B5
S11300F0CF0181E08883DF91CF910895CF93DF937F
S1130100CDB7DEB7C956D109CDBFDEBF18EDA8956E
S113011014BF80910001807F8093000160E081E63C
S113012090E00E94FD010E94DB010E94ED010E940B
S1130130BE018FEF0E94CF010E94CB01A89514BF8E
S1130140109100011060109300011091010111FD44
S1130150FCCF8AE0EAE0F4E8DE01119601900D920A
S11301608A95E1F7FE013B968AE5DF011D928A95A7
S1130170E9F7AA961FAEAA978FEF0E94B301E12C6C
S1130180D12C1FEF00E0F12CA89584E00E94B3016C
S1130190882341F08FEF0E94CF01E12CD12C1FEF77
S11301A000E00BC0B1E0FB1609F463C0FB1628F0B5
S11301B082E0F81609F44AC08BC088E00E94B301BB
S11301C0882309F484C0ED1460F48FEF0E94B30116
S11301D08FEF0E94CF01E12C1FEF00E022E0F22E0E
S11301E077C0143020F18E2D86958695E1E0F0E0FD
S11301F0EC0FFD1FE80FF11D8081811108C0CE01B5
S113020087599F4F0E946B00FF24F39461C011E053
S1130210100FE1E0F0E0EC0FFD1FE00FF11DBE0157
S11302206B597F4F80810E945D00012F10E0FF24F5
S1130230F394F10EE5E6F0E0EC0FFD1FE10FF11D84
S113024080810E94CF01D3941F2D41C088EF0E946A
S1130250B301803259F018F48031B1F039C08034E0
S1130260C9F18038A9F593E0C92E0FC0CC24C394FA
S11302700CC088E00E94B301882351F1CE01875954
S11302809F4F0E946B0024C0C12C143080F011E0F9
S1130290100FE1E0F0E0EC0FFD1FE00FF11DBE01D7
S11302A06B597F4F80810E945D00012F10E0E5E6CD
S11302B0F0E0EC0FFD1FE10FF11D80818C1569F05A
S11302C084E00E94CF01E12CD12C1FEF00E0F12C3F
S11302D088955ACF82E0C82ED8CF1F5F8C2D0E94FC
S11302E0CF01E394DE10F4CF8FEF0E94CF01ECCF67
S11302F01F920F920FB60F9211242F938F939F93F7
S1130300EF93FF93E0E4F1E083898160838B82B112
S1130310909103388095282F2927909101389223B2
S1130320892F8095809301389091003892239827E3
S113033090930038822389239091033898279093CF
S1130340033820910338909102388223892B8093BB
S11303500238FF91EF919F918F912F910F900FBED3
S11303600F901F901895F8949091023889239091DA
S113037002389827909302387894089580B1837056
S113038080B9E0E0F4E088E0828B838B848B858BFA
S1130390868B878B089588B18F6088B908958730DC
S11303A030F4E82FF0E0E259FB47808101C080E09F
S11303B0809589B90895809141018111FCCF81E034
S11303C08093470180E8809340018091510181111D
S11303D0FCCF88E0809350010895809151018111F0
S11303E0FCCF81E0809353018093520180915001AE
S11303F081608093500108951895DC0128ED2093C5
S10D040034006C930895F894FFCFC4
S113040A4B6C616261757465720000000000000043
S113041A00000000000000000000000000000000CE
S113042A00000000000000000000000000000000BE
S113043A00000000000000000000000000000000AE
S113044A000000000000000000000000000000009E
S113045A000000000000000000000000000000008E
S10E046A00000000010204080F050A56
S1050475FFFF83
S9030000FC
