:100000000C9445000C9462000C9462000C94620005
:100010000C9462000C9462000C941F020C948A01F0
:100020000C9462000C9462000C9462000C946200C8
:100030000C9462000C9462000C9462000C946200B8
:100040000C9462000C9462000C9462000C946200A8
:100050000C9462000C9462000C9462000C94620098
:100060000C9462000C9462000C9462000C94620088
:100070000C9462000C9462000C946200EC01FA0192
:10008000EE01F001F201F401F60111241FBECFEFE1
:10009000CDBFDFE3DEBF18E3A0E0B8E3E0ECF4E0BF
:1000A00002C005900D92A230B107D9F728E3A2E073
:1000B000B8E301C01D92A430B207E1F70E948500A9
:1000C0000C942C020C94000090E009C0FB01E90F95
:1000D000F11D282F23702083869586959F5F94308D
:1000E000A8F30895CF93DF93EC018881882329F04A
:1000F00085E00E94E301188205C086E00E94E301CA
:1001000081E08883DF91CF910895CF93DF93CDB7BE
:10011000DEB7C956D109CDBFDEBF18EDA89514BF13
:1001200080910001807F8093000160E081E690E093
:100130000E9426020E94FE010E9412020E94D20129
:100140008FEF0E94E3010E94DF01A89514BF109178
:1001500000011060109300011091010111FDFCCF0E
:1001600086E0ECE5F4E8DE01119601900D928A95A7
:10017000E1F7FE0137968EE5DF011D928A95E9F7DA
:10018000AA961FAEAA978FEF0E94C701E12CF12C0F
:100190000FEFC12C11E0A89584E00E94C7018823CD
:1001A00041F08FEF0E94E301E12CF12C0FEFC12C05
:1001B00010E0113009F4A2C020F0123009F44AC056
:1001C000A7C088E00E94C701882309F4A1C0EF14EA
:1001D00058F48FEF0E94C7018FEF0E94E301E12CDA
:1001E0000FEFC12C12E094C0043098F08E2D86954C
:1001F0008695E1E0F0E0EC0FFD1FE80FF11D808136
:10020000811107C0CE0187599F4F0E94720011E0F3
:100210007FC0043080F001E00C0DE1E0F0E0EC0F75
:10022000FD1FEC0DF11DBE016B597F4F80810E94B7
:100230006400C02E00E0DD24D394D00EE5E6F0E0AB
:10024000EC0FFD1FE00FF11D80810E94E301F3948C
:100250000D2D5EC088EF0E94C7018032B9F018F4FE
:10026000803131F010C0803429F0803839F00BC073
:10027000D12C0EC06894DD24D1F80AC00F2EF3E013
:10028000DF2EF02D05C0DD24DA9402C0DD24D394E6
:10029000B3E0BD15E8F1043080F001E00C0DE1E0C1
:1002A000F0E0EC0FFD1FEC0DF11DBE016B597F4F0F
:1002B00080810E946400C02E00E0E5E6F0E0EC0FD3
:1002C000FD1FE00FF11D8081D81207C00F5F0E9453
:1002D000E301E394FE101CC009C084E00E94E30126
:1002E000E12CF12C0FEFC12C10E012C08FEF0E9417
:1002F000E301F12C0FEFC12C10E00AC088E00E944E
:10030000C701882329F0CE0187599F4F0E947200B0
:10031000889541CF1F920F920FB60F9211242F9301
:100320003F938F939F93EF93FF93E0E4F1E08389F2
:100330008160838B82B19091033880958927909159
:1003400001389823392F30953093013820910038A7
:100350002823922F932790930038932389239091F9
:10036000033898279093033890910338892390910C
:100370000238892B80930238FF91EF919F918F91E2
:100380003F912F910F900FBE0F901F901895F894EA
:1003900090910238892390910238982790930238DF
:1003A0007894089580B1837080B9E0E0F4E088E04B
:1003B000828B838B848B858B868B878B089588B10A
:1003C0008F6088B9089590E08730910588F4FC012A
:1003D000E25CFF4F0C94200281E00DC084E00BC072
:1003E00088E009C08FE007C085E005C08AE003C04F
:1003F00080E001C082E0809589B908958091410133
:100400008111FCCFE0E4F1E081E087838583858B77
:1004100080E88083809151018111FCCF88E0809336
:1004200050010895809151018111FCCFE0E4F1E089
:1004300081E0838B828B80898160808B0895189501
:10044000EE0FFF1F0590F491E02D0994DC0128EDDB
:0C045000209334006C930895F894FFCFC3
:10045C004E7564656C000000000000000000000098
:10046C000000000000000000000000000000000080
:10047C000000000000000000000000000000000070
:10048C000000000000000000000000000000000060
:10049C000000000000000000000000000000000050
:1004AC000000000000000000000000000000000040
:0404BC00000000003C
:0204C000FFFF3C
:00000001FF
